:100000000C942A000C94F9000C9422010C944B01DE
:100010000C9447000C9447000C9441020C94EF019F
:100020000C9418020C94C6010C949D010C9474015C
:100030000C9447000C946A020C9447000C949302B1
:100040000C9447000C9447000C9447000C94470014
:100050000C94470011241FBECFE5D8E0DEBFCDBF12
:1000600010E0A0E6B0E0ECE7F5E002C005900D92EC
:10007000AA37B107D9F720E0AAE7B0E001C01D9286
:10008000A039B207E1F70E9473000C94BC020C94F3
:100090000000CF93DF93009781F0EC010E94800075
:1000A00060E0CE010E94BA002496CE010E9480003A
:1000B00060E0CE010E94BA0001C080E0DF91CF91E4
:1000C0000895CF93DF93009751F0EC0160E00E9418
:1000D000BA0061E0CE0104960E94BA0001C080E03F
:1000E000DF91CF91089580E690E00E9449008093CF
:1000F000680080E690E00E94610080936800F9CF7C
:10010000FC01892B99F18281882319F08130B9F0A3
:100110002FC0A081B0E0AA0FBB1FAF58BF4F0D90FA
:10012000BC91A02D2C9181E090E0018002C0880F4D
:10013000991F0A94E2F7822B8C9381E00895A081A5
:10014000B0E0AA0FBB1FAF58BF4F0D90BC91A02DC0
:100150002C9181E090E0018002C0880F991F0A94E1
:10016000E2F7809582238C9381E0089580E00895E2
:1001700080E008950097C9F16623E1F06130B9F598
:10018000DC01EC91F0E0EE0FFF1FE759FF4F01900B
:10019000F081E02D408121E030E0B90111960C9012
:1001A00002C0660F771F0A94E2F7CB01842B80838D
:1001B00081E00895DC01EC91F0E0EE0FFF1FE759BC
:1001C000FF4F0190F081E02D408121E030E0B90146
:1001D00011960C9002C0660F771F0A94E2F7CB01CC
:1001E00080958423808381E0089580E0089580E0F5
:1001F00008951F920F920FB60F9211242F933F93E1
:100200004F935F936F937F938F939F93AF93BF931E
:10021000EF93FF93E0917E00F0917F00309709F01B
:100220000995FF91EF91BF91AF919F918F917F9130
:100230006F915F914F913F912F910F900FBE0F9053
:100240001F9018951F920F920FB60F9211242F93A3
:100250003F934F935F936F937F938F939F93AF934E
:10026000BF93EF93FF93E0917C00F0917D00309776
:1002700009F00995FF91EF91BF91AF919F918F91F7
:100280007F916F915F914F913F912F910F900FBE92
:100290000F901F9018951F920F920FB60F92112476
:1002A0002F933F934F935F936F937F938F939F937E
:1002B000AF93BF93EF93FF93E0917A00F0917B00AF
:1002C000309709F00995FF91EF91BF91AF919F9100
:1002D0008F917F916F915F914F913F912F910F90EF
:1002E0000FBE0F901F9018951F920F920FB60F928E
:1002F00011242F933F934F935F936F937F938F932B
:100300009F93AF93BF93EF93FF93E0918200F0919F
:100310008300309709F00995FF91EF91BF91AF915C
:100320009F918F917F916F915F914F913F912F910D
:100330000F900FBE0F901F9018951F920F920FB63F
:100340000F9211242F933F934F935F936F937F935B
:100350008F939F93AF93BF93EF93FF93E0918000B0
:10036000F0918100309709F00995FF91EF91BF91CD
:10037000AF919F918F917F916F915F914F913F913D
:100380002F910F900FBE0F901F9018951F920F92F4
:100390000FB60F9211242F933F934F935F936F9358
:1003A0007F938F939F93AF93BF93EF93FF93E091CE
:1003B0008A00F0918B00309709F00995FF91EF9139
:1003C000BF91AF919F918F917F916F915F914F916D
:1003D0003F912F910F900FBE0F901F9018951F9275
:1003E0000F920FB60F9211242F933F934F935F9369
:1003F0006F937F938F939F93AF93BF93EF93FF93ED
:10040000E0918800F0918900309709F00995FF91FB
:10041000EF91BF91AF919F918F917F916F915F917C
:100420004F913F912F910F900FBE0F901F901895F5
:100430001F920F920FB60F9211242F933F934F9359
:100440005F936F937F938F939F93AF93BF93EF933C
:10045000FF93E0918600F0918700309709F00995AD
:10046000FF91EF91BF91AF919F918F917F916F918C
:100470005F914F913F912F910F900FBE0F901F9062
:1004800018951F920F920FB60F9211242F933F933E
:100490004F935F936F937F938F939F93AF93BF938C
:1004A000EF93FF93E0918400F0918500309709F07D
:1004B0000995FF91EF91BF91AF919F918F917F919E
:1004C0006F915F914F913F912F910F900FBE0F90C1
:1004D0001F9018951F920F920FB60F9211242F9311
:1004E0003F934F935F936F937F938F939F93AF93BC
:1004F000BF93EF93FF93E0918E00F0918F003097C0
:1005000009F00995FF91EF91BF91AF919F918F9164
:100510007F916F915F914F913F912F910F900FBEFF
:100520000F901F9018951F920F920FB60F921124E3
:100530002F933F934F935F936F937F938F939F93EB
:10054000AF93BF93EF93FF93E0918C00F0918D00F8
:10055000309709F00995FF91EF91BF91AF919F916D
:100560008F917F916F915F914F913F912F910F905C
:0C0570000FBE0F901F901895F894FFCF5D
:10057C000304000003050000013B00380035003285
:0A058C00003A00370034003100008F
:00000001FF
